{
  "_format": "hh-sol-artifact-1",
  "contractName": "HelloWall",
  "sourceName": "contracts/HelloWall.sol",
  "abi": [
    {
      "inputs": [
        {
          "internalType": "address",
          "name": "_token",
          "type": "address"
        },
        {
          "internalType": "uint256",
          "name": "_minTok",
          "type": "uint256"
        },
        {
          "internalType": "uint16",
          "name": "_feeBps",
          "type": "uint16"
        },
        {
          "internalType": "address",
          "name": "_treasury",
          "type": "address"
        },
        {
          "internalType": "address",
          "name": "_owner",
          "type": "address"
        }
      ],
      "stateMutability": "nonpayable",
      "type": "constructor"
    },
    {
      "inputs": [
        {
          "internalType": "address",
          "name": "owner",
          "type": "address"
        }
      ],
      "name": "OwnableInvalidOwner",
      "type": "error"
    },
    {
      "inputs": [
        {
          "internalType": "address",
          "name": "account",
          "type": "address"
        }
      ],
      "name": "OwnableUnauthorizedAccount",
      "type": "error"
    },
    {
      "anonymous": false,
      "inputs": [
        {
          "indexed": true,
          "internalType": "address",
          "name": "author",
          "type": "address"
        },
        {
          "indexed": true,
          "internalType": "uint256",
          "name": "postId",
          "type": "uint256"
        },
        {
          "indexed": true,
          "internalType": "uint256",
          "name": "id",
          "type": "uint256"
        },
        {
          "indexed": false,
          "internalType": "string",
          "name": "contentCid",
          "type": "string"
        },
        {
          "indexed": false,
          "internalType": "uint256",
          "name": "feePaid",
          "type": "uint256"
        }
      ],
      "name": "Comment",
      "type": "event"
    },
    {
      "anonymous": false,
      "inputs": [
        {
          "indexed": true,
          "internalType": "address",
          "name": "follower",
          "type": "address"
        },
        {
          "indexed": true,
          "internalType": "address",
          "name": "target",
          "type": "address"
        },
        {
          "indexed": false,
          "internalType": "bool",
          "name": "notify",
          "type": "bool"
        }
      ],
      "name": "Follow",
      "type": "event"
    },
    {
      "anonymous": false,
      "inputs": [
        {
          "indexed": true,
          "internalType": "address",
          "name": "previousOwner",
          "type": "address"
        },
        {
          "indexed": true,
          "internalType": "address",
          "name": "newOwner",
          "type": "address"
        }
      ],
      "name": "OwnershipTransferred",
      "type": "event"
    },
    {
      "anonymous": false,
      "inputs": [
        {
          "indexed": true,
          "internalType": "address",
          "name": "author",
          "type": "address"
        },
        {
          "indexed": true,
          "internalType": "uint256",
          "name": "id",
          "type": "uint256"
        },
        {
          "indexed": false,
          "internalType": "string",
          "name": "contentCid",
          "type": "string"
        },
        {
          "indexed": false,
          "internalType": "uint256",
          "name": "feePaid",
          "type": "uint256"
        }
      ],
      "name": "Post",
      "type": "event"
    },
    {
      "anonymous": false,
      "inputs": [
        {
          "indexed": false,
          "internalType": "uint256",
          "name": "minTokensToPost",
          "type": "uint256"
        },
        {
          "indexed": false,
          "internalType": "uint16",
          "name": "feeBps",
          "type": "uint16"
        },
        {
          "indexed": false,
          "internalType": "address",
          "name": "treasury",
          "type": "address"
        }
      ],
      "name": "SettingsChanged",
      "type": "event"
    },
    {
      "inputs": [
        {
          "internalType": "uint256",
          "name": "postId",
          "type": "uint256"
        },
        {
          "internalType": "string",
          "name": "contentCid",
          "type": "string"
        }
      ],
      "name": "comment",
      "outputs": [
        {
          "internalType": "uint256",
          "name": "id",
          "type": "uint256"
        }
      ],
      "stateMutability": "nonpayable",
      "type": "function"
    },
    {
      "inputs": [],
      "name": "feeBps",
      "outputs": [
        {
          "internalType": "uint16",
          "name": "",
          "type": "uint16"
        }
      ],
      "stateMutability": "view",
      "type": "function"
    },
    {
      "inputs": [
        {
          "internalType": "address",
          "name": "target",
          "type": "address"
        },
        {
          "internalType": "bool",
          "name": "notify",
          "type": "bool"
        }
      ],
      "name": "follow",
      "outputs": [],
      "stateMutability": "nonpayable",
      "type": "function"
    },
    {
      "inputs": [],
      "name": "hwallet",
      "outputs": [
        {
          "internalType": "contract IERC20",
          "name": "",
          "type": "address"
        }
      ],
      "stateMutability": "view",
      "type": "function"
    },
    {
      "inputs": [],
      "name": "minTokensToPost",
      "outputs": [
        {
          "internalType": "uint256",
          "name": "",
          "type": "uint256"
        }
      ],
      "stateMutability": "view",
      "type": "function"
    },
    {
      "inputs": [],
      "name": "owner",
      "outputs": [
        {
          "internalType": "address",
          "name": "",
          "type": "address"
        }
      ],
      "stateMutability": "view",
      "type": "function"
    },
    {
      "inputs": [
        {
          "internalType": "string",
          "name": "contentCid",
          "type": "string"
        }
      ],
      "name": "post",
      "outputs": [
        {
          "internalType": "uint256",
          "name": "id",
          "type": "uint256"
        }
      ],
      "stateMutability": "nonpayable",
      "type": "function"
    },
    {
      "inputs": [],
      "name": "renounceOwnership",
      "outputs": [],
      "stateMutability": "nonpayable",
      "type": "function"
    },
    {
      "inputs": [
        {
          "internalType": "uint256",
          "name": "_minTok",
          "type": "uint256"
        },
        {
          "internalType": "uint16",
          "name": "_feeBps",
          "type": "uint16"
        },
        {
          "internalType": "address",
          "name": "_treasury",
          "type": "address"
        }
      ],
      "name": "setRules",
      "outputs": [],
      "stateMutability": "nonpayable",
      "type": "function"
    },
    {
      "inputs": [
        {
          "internalType": "address",
          "name": "newOwner",
          "type": "address"
        }
      ],
      "name": "transferOwnership",
      "outputs": [],
      "stateMutability": "nonpayable",
      "type": "function"
    },
    {
      "inputs": [],
      "name": "treasury",
      "outputs": [
        {
          "internalType": "address",
          "name": "",
          "type": "address"
        }
      ],
      "stateMutability": "view",
      "type": "function"
    }
  ],
  "bytecode": "0x60a06040523480156200001157600080fd5b50604051620016f5380380620016f583398181016040528101906200003791906200047a565b80600073ffffffffffffffffffffffffffffffffffffffff168173ffffffffffffffffffffffffffffffffffffffff1603620000ad5760006040517f1e4fbdf7000000000000000000000000000000000000000000000000000000008152600401620000a4919062000513565b60405180910390fd5b620000be81620002d260201b60201c565b50600073ffffffffffffffffffffffffffffffffffffffff168573ffffffffffffffffffffffffffffffffffffffff16141580156200012a5750600073ffffffffffffffffffffffffffffffffffffffff168273ffffffffffffffffffffffffffffffffffffffff1614155b8015620001645750600073ffffffffffffffffffffffffffffffffffffffff168173ffffffffffffffffffffffffffffffffffffffff1614155b620001a6576040517f08c379a00000000000000000000000000000000000000000000000000000000081526004016200019d9062000591565b60405180910390fd5b6127108361ffff161115620001f2576040517f08c379a0000000000000000000000000000000000000000000000000000000008152600401620001e99062000603565b60405180910390fd5b8473ffffffffffffffffffffffffffffffffffffffff1660808173ffffffffffffffffffffffffffffffffffffffff16815250508360018190555082600260006101000a81548161ffff021916908361ffff160217905550816002806101000a81548173ffffffffffffffffffffffffffffffffffffffff021916908373ffffffffffffffffffffffffffffffffffffffff1602179055507f38e782b968ab7984809871639baa362745c54a95e20bc0ca0a828925652bf0de848484604051620002bf9392919062000647565b60405180910390a1505050505062000684565b60008060009054906101000a900473ffffffffffffffffffffffffffffffffffffffff169050816000806101000a81548173ffffffffffffffffffffffffffffffffffffffff021916908373ffffffffffffffffffffffffffffffffffffffff1602179055508173ffffffffffffffffffffffffffffffffffffffff168173ffffffffffffffffffffffffffffffffffffffff167f8be0079c531659141344cd1fd0a4f28419497f9722a3daafe3b4186f6b6457e060405160405180910390a35050565b600080fd5b600073ffffffffffffffffffffffffffffffffffffffff82169050919050565b6000620003c8826200039b565b9050919050565b620003da81620003bb565b8114620003e657600080fd5b50565b600081519050620003fa81620003cf565b92915050565b6000819050919050565b620004158162000400565b81146200042157600080fd5b50565b60008151905062000435816200040a565b92915050565b600061ffff82169050919050565b62000454816200043b565b81146200046057600080fd5b50565b600081519050620004748162000449565b92915050565b600080600080600060a0868803121562000499576200049862000396565b5b6000620004a988828901620003e9565b9550506020620004bc8882890162000424565b9450506040620004cf8882890162000463565b9350506060620004e288828901620003e9565b9250506080620004f588828901620003e9565b9150509295509295909350565b6200050d81620003bb565b82525050565b60006020820190506200052a600083018462000502565b92915050565b600082825260208201905092915050565b7f6261642061646472000000000000000000000000000000000000000000000000600082015250565b60006200057960088362000530565b9150620005868262000541565b602082019050919050565b60006020820190508181036000830152620005ac816200056a565b9050919050565b7f6270733e31303025000000000000000000000000000000000000000000000000600082015250565b6000620005eb60088362000530565b9150620005f882620005b3565b602082019050919050565b600060208201905081810360008301526200061e81620005dc565b9050919050565b620006308162000400565b82525050565b62000641816200043b565b82525050565b60006060820190506200065e600083018662000625565b6200066d602083018562000636565b6200067c604083018462000502565b949350505050565b60805161104e620006a7600039600081816102a101526106b1015261104e6000f3fe608060405234801561001057600080fd5b50600436106100a95760003560e01c80636d1be84e116100715780636d1be84e14610154578063715018a6146101705780638da5cb5b1461017a5780638ee93cf3146101985780639ae11f97146101c8578063f2fde38b146101e6576100a9565b80631805c523146100ae57806324a9d853146100de57806348d85c28146100fc57806361d027b31461011a57806363c3cc1614610138575b600080fd5b6100c860048036038101906100c39190610989565b610202565b6040516100d591906109f8565b60405180910390f35b6100e661028b565b6040516100f39190610a30565b60405180910390f35b61010461029f565b6040516101119190610aca565b60405180910390f35b6101226102c3565b60405161012f9190610b06565b60405180910390f35b610152600480360381019061014d9190610b85565b6102e7565b005b61016e60048036038101906101699190610bf1565b6103f8565b005b61017861055c565b005b610182610570565b60405161018f9190610b06565b60405180910390f35b6101b260048036038101906101ad9190610c44565b610599565b6040516101bf91906109f8565b60405180910390f35b6101d0610620565b6040516101dd91906109f8565b60405180910390f35b61020060048036038101906101fb9190610c91565b610626565b005b600061020c6106ac565b600061021661078c565b905060046000815461022790610ced565b919050819055915081853373ffffffffffffffffffffffffffffffffffffffff167fbf1bf8dfa1e556a68fe5e4785a6130e4ac1c39e1c01b2ce240096f60b4e66ca787878660405161027b93929190610d93565b60405180910390a4509392505050565b600260009054906101000a900461ffff1681565b7f000000000000000000000000000000000000000000000000000000000000000081565b60028054906101000a900473ffffffffffffffffffffffffffffffffffffffff1681565b600073ffffffffffffffffffffffffffffffffffffffff168273ffffffffffffffffffffffffffffffffffffffff161415801561035057503373ffffffffffffffffffffffffffffffffffffffff168273ffffffffffffffffffffffffffffffffffffffff1614155b61038f576040517f08c379a000000000000000000000000000000000000000000000000000000000815260040161038690610e11565b60405180910390fd5b8173ffffffffffffffffffffffffffffffffffffffff163373ffffffffffffffffffffffffffffffffffffffff167f797e807371f55acfde3a453ae19e600c7ff7e0366a5c0f7da70aae90871f2137836040516103ec9190610e40565b60405180910390a35050565b610400610791565b6127108261ffff161115610449576040517f08c379a000000000000000000000000000000000000000000000000000000000815260040161044090610ea7565b60405180910390fd5b600073ffffffffffffffffffffffffffffffffffffffff168173ffffffffffffffffffffffffffffffffffffffff16036104b8576040517f08c379a00000000000000000000000000000000000000000000000000000000081526004016104af90610f13565b60405180910390fd5b8260018190555081600260006101000a81548161ffff021916908361ffff160217905550806002806101000a81548173ffffffffffffffffffffffffffffffffffffffff021916908373ffffffffffffffffffffffffffffffffffffffff1602179055507f38e782b968ab7984809871639baa362745c54a95e20bc0ca0a828925652bf0de83838360405161054f93929190610f33565b60405180910390a1505050565b610564610791565b61056e6000610818565b565b60008060009054906101000a900473ffffffffffffffffffffffffffffffffffffffff16905090565b60006105a36106ac565b60006105ad61078c565b90506003600081546105be90610ced565b9190508190559150813373ffffffffffffffffffffffffffffffffffffffff167f69d6fdd05631548e53964a48988bc46e8f85e46dd6f30e7fbdddfd83b6c6eff886868560405161061193929190610d93565b60405180910390a35092915050565b60015481565b61062e610791565b600073ffffffffffffffffffffffffffffffffffffffff168173ffffffffffffffffffffffffffffffffffffffff16036106a05760006040517f1e4fbdf70000000000000000000000000000000000000000000000000000000081526004016106979190610b06565b60405180910390fd5b6106a981610818565b50565b6001547f000000000000000000000000000000000000000000000000000000000000000073ffffffffffffffffffffffffffffffffffffffff166370a08231336040518263ffffffff1660e01b81526004016107089190610b06565b602060405180830381865afa158015610725573d6000803e3d6000fd5b505050506040513d601f19601f820116820180604052508101906107499190610f7f565b101561078a576040517f08c379a000000000000000000000000000000000000000000000000000000000815260040161078190610ff8565b60405180910390fd5b565b600090565b6107996108dc565b73ffffffffffffffffffffffffffffffffffffffff166107b7610570565b73ffffffffffffffffffffffffffffffffffffffff1614610816576107da6108dc565b6040517f118cdaa700000000000000000000000000000000000000000000000000000000815260040161080d9190610b06565b60405180910390fd5b565b60008060009054906101000a900473ffffffffffffffffffffffffffffffffffffffff169050816000806101000a81548173ffffffffffffffffffffffffffffffffffffffff021916908373ffffffffffffffffffffffffffffffffffffffff1602179055508173ffffffffffffffffffffffffffffffffffffffff168173ffffffffffffffffffffffffffffffffffffffff167f8be0079c531659141344cd1fd0a4f28419497f9722a3daafe3b4186f6b6457e060405160405180910390a35050565b600033905090565b600080fd5b600080fd5b6000819050919050565b610901816108ee565b811461090c57600080fd5b50565b60008135905061091e816108f8565b92915050565b600080fd5b600080fd5b600080fd5b60008083601f84011261094957610948610924565b5b8235905067ffffffffffffffff81111561096657610965610929565b5b6020830191508360018202830111156109825761098161092e565b5b9250929050565b6000806000604084860312156109a2576109a16108e4565b5b60006109b08682870161090f565b935050602084013567ffffffffffffffff8111156109d1576109d06108e9565b5b6109dd86828701610933565b92509250509250925092565b6109f2816108ee565b82525050565b6000602082019050610a0d60008301846109e9565b92915050565b600061ffff82169050919050565b610a2a81610a13565b82525050565b6000602082019050610a456000830184610a21565b92915050565b600073ffffffffffffffffffffffffffffffffffffffff82169050919050565b6000819050919050565b6000610a90610a8b610a8684610a4b565b610a6b565b610a4b565b9050919050565b6000610aa282610a75565b9050919050565b6000610ab482610a97565b9050919050565b610ac481610aa9565b82525050565b6000602082019050610adf6000830184610abb565b92915050565b6000610af082610a4b565b9050919050565b610b0081610ae5565b82525050565b6000602082019050610b1b6000830184610af7565b92915050565b610b2a81610ae5565b8114610b3557600080fd5b50565b600081359050610b4781610b21565b92915050565b60008115159050919050565b610b6281610b4d565b8114610b6d57600080fd5b50565b600081359050610b7f81610b59565b92915050565b60008060408385031215610b9c57610b9b6108e4565b5b6000610baa85828601610b38565b9250506020610bbb85828601610b70565b9150509250929050565b610bce81610a13565b8114610bd957600080fd5b50565b600081359050610beb81610bc5565b92915050565b600080600060608486031215610c0a57610c096108e4565b5b6000610c188682870161090f565b9350506020610c2986828701610bdc565b9250506040610c3a86828701610b38565b9150509250925092565b60008060208385031215610c5b57610c5a6108e4565b5b600083013567ffffffffffffffff811115610c7957610c786108e9565b5b610c8585828601610933565b92509250509250929050565b600060208284031215610ca757610ca66108e4565b5b6000610cb584828501610b38565b91505092915050565b7f4e487b7100000000000000000000000000000000000000000000000000000000600052601160045260246000fd5b6000610cf8826108ee565b91507fffffffffffffffffffffffffffffffffffffffffffffffffffffffffffffffff8203610d2a57610d29610cbe565b5b600182019050919050565b600082825260208201905092915050565b82818337600083830152505050565b6000601f19601f8301169050919050565b6000610d728385610d35565b9350610d7f838584610d46565b610d8883610d55565b840190509392505050565b60006040820190508181036000830152610dae818587610d66565b9050610dbd60208301846109e9565b949350505050565b7f6261642074617267657400000000000000000000000000000000000000000000600082015250565b6000610dfb600a83610d35565b9150610e0682610dc5565b602082019050919050565b60006020820190508181036000830152610e2a81610dee565b9050919050565b610e3a81610b4d565b82525050565b6000602082019050610e556000830184610e31565b92915050565b7f6270733e31303025000000000000000000000000000000000000000000000000600082015250565b6000610e91600883610d35565b9150610e9c82610e5b565b602082019050919050565b60006020820190508181036000830152610ec081610e84565b9050919050565b7f74726561737572793d3000000000000000000000000000000000000000000000600082015250565b6000610efd600a83610d35565b9150610f0882610ec7565b602082019050919050565b60006020820190508181036000830152610f2c81610ef0565b9050919050565b6000606082019050610f4860008301866109e9565b610f556020830185610a21565b610f626040830184610af7565b949350505050565b600081519050610f79816108f8565b92915050565b600060208284031215610f9557610f946108e4565b5b6000610fa384828501610f6a565b91505092915050565b7f4e4545445f544f4b454e53000000000000000000000000000000000000000000600082015250565b6000610fe2600b83610d35565b9150610fed82610fac565b602082019050919050565b6000602082019050818103600083015261101181610fd5565b905091905056fea26469706673582212208dae52e9170cfef7e121a24c65006867538198c05a5778ab0a0f0af8bc3097d264736f6c63430008180033",
  "linkReferences": {},
  "deployedLinkReferences": {}
}